:020000040800F2
:100000002820002001010008090100080B01000858
:100010000D0100080F010008110100080000000098
:1000200000000000000000000000000013010008B4
:10003000150100080000000017010008E110000889
:100040001B0100081B0100081B0100081B01000820
:100050001B0100081B0100081B0100081B01000810
:100060001B0100081B0100081B0100081B01000800
:100070001B0100081B0100081B0100081B010008F0
:100080001B0100081B0100081B0100081B010008E0
:100090001B0100081B0100081B0100081B010008D0
:1000A0001B0100081B0100081B0100081B010008C0
:1000B000D51100081B0100081B0100081B010008E6
:1000C0001B0100081B0100081B0100081B010008A0
:1000D0001B010008BD180008CD180008DD18000835
:1000E0001B0100081B0100081B010008DFF80CD0F1
:1000F00000F04AF800480047992400082820002012
:100100000648804706480047FEE7FEE7FEE7FEE7B1
:10011000FEE7FEE7FEE7FEE7FEE7FEE775110008F3
:10012000ED0000082DE9F05F0546002092469B4651
:1001300088460646814640241BE0284641464746FD
:10014000224600F042F853465A46C01A914110D355
:1001500011461846224600F029F82D1A67EB0108CF
:100160004F4622460120002100F020F817EB00093D
:100170004E41201EA4F10104DFDC484631462A46E8
:100180004346BDE8F09F0000064C074D06E0E068DE
:1001900040F0010394E8070098471034AC42F6D3CE
:1001A000FFF7A8FF9C260008BC260008202A04DBD5
:1001B000203A00FA02F1002070479140C2F120037A
:1001C00020FA03F3194390407047202A04DB203AB9
:1001D00021FA02F00021704721FA02F3D040C2F167
:1001E0002002914008431946704721B1826842F0CD
:1001F0000102826003E0826822F00102826070479F
:1002000000B587B001214FF4017000F01FFB012001
:10021000ADF8180000208DF81B0006A91D4800F05D
:1002200087F90020019001208DF808008DF8090061
:100230004FF4602003900020049001208DF81400FA
:1002400001A9154800F04EF80523012200211248AB
:1002500000F070F80121104800F020F801210E484C
:10026000FFF7C3FF0C4800F0C1F800BF0A4800F0D8
:100270002EF80028FAD1084800F0C8F800BF064858
:1002800000F017F80028FAD10121034800F0B3F874
:1002900007B000BD000801400024014021B1826880
:1002A00042F48072826003E0826822F4807282608D
:1002B0007047014600208A6802F004020AB101205A
:1002C00000E0002070470146C86C80B270470146CC
:1002D00000208A6802F008020AB1012000E0002034
:1002E0007047000030B502460020002350680F4CD4
:1002F00020400D790C6844EA052420435060906842
:100300000B4C2040D1E902542C434D7944EA45047A
:1003100020439060D06A20F470000C7C641EE4B22C
:10032000234340EA0350D06230BD0000FFFEF0FFDF
:10033000FDF7F1FFF0B504460D4600200021092D20
:1003400011DDE068A5F10A0606EB4607072606FA66
:1003500007F18843A5F10A0606EB460603FA06F103
:100360000843E0600CE0206905EB4507072606FA24
:1003700007F1884305EB450603FA06F108432061BF
:10038000072A0FDA606B561E06EB86071F2606FA51
:1003900007F18843561E06EB860605FA06F1084368
:1003A000606322E00D2A0FDA206BD61F06EB86076A
:1003B0001F2606FA07F18843D61F06EB860605FAC4
:1003C00006F10843206310E0E06AA2F10D0606EB97
:1003D00086071F2606FA07F18843A2F10D0606EBF1
:1003E000860605FA06F10843E062F0BD816841F037
:1003F00008018160704721B1826842F4A0028260E6
:1004000003E0826822F4A00282607047816841F0B4
:10041000040181607047000070B51348FFF753FF77
:100420001249134A127821F8120011480078401C32
:10043000C0B20F490870142801DB002008700025A5
:10044000002405E0094830F814000544601CC4B2DB
:10045000142CF7DB1420B5FBF0F0064908800121CD
:100460000148FFF7C8FF70BD0024014024010020AF
:10047000A2000020A00000202DE9F04105460E4614
:1004800017464FF480510B4800F0E6F845F0800025
:1004900000F0B0FC002404E0305D00F0ABFC601C18
:1004A000C4B2BC42F8DB4FF48051024800F0D6F8E9
:1004B000BDE8F081000C01402DE9F04105460E46F3
:1004C0001746284600F018F804460CB9BDE8F0813C
:1004D000E06908B1E06980473A463146204601F0BC
:1004E000B5FB00BFF2E713B50446012201A920467F
:1004F000FFF7E2FF1CBD0000014609B9094870473B
:10050000012901D10848FAE7022901D10748F6E795
:10051000032901D10020F2E7042901D10020EEE7F0
:100520000020ECE74C010020740900209C11002001
:100530002DE9F0410246002500260020002300247A
:10054000002791F803C00CF00F0591F803C00CF0E0
:10055000100CBCF1000F03D091F802C04CEA050565
:1005600091F800C0BCF1000F31D0146800202BE0DE
:100570004FF0010C0CFA00F3B1F800C00CEA0306CE
:100580009E4220D183004FF00F0C0CFA03F7BC43BE
:1005900005FA03FC4CEA040491F803C0BCF1280FEF
:1005A00006D14FF0010C0CFA00FCC2F814C00AE0AE
:1005B00091F803C0BCF1480F05D14FF0010C0CFAC3
:1005C00000FCC2F810C0401C0828D1D31460B1F858
:1005D00000C0BCF1FF0F34DD546800202EE000F1B4
:1005E000080C4FF0010808FA0CF3B1F800C00CEA4F
:1005F00003069E4221D183004FF00F0C0CFA03F743
:10060000BC4305FA03FC4CEA040491F803C0BCF1B6
:10061000280F05D100F1080C08FA0CF8C2F8148074
:1006200091F803C0BCF1480F07D100F1080C4FF05E
:10063000010808FA0CF8C2F81080401C0828CED334
:100640005460BDE8F0810246002093680B400BB176
:10065000012000E000207047416170470161704750
:10066000012080F3108800BF03480188002080F338
:10067000108800BF08467047A000002000202949CC
:100680000968294A11602949097831B101290FD037
:1006900002291BD003293CD131E02349096819B94B
:1006A0000121224A117002E00021204A117036E037
:1006B0001D49096831B902211C4A117000211C4AE8
:1006C000116002E00021194A117028E016490968FA
:1006D00089B90221154A117015490968491C144A43
:1006E0001160012011460968B1F5967F06D90021F5
:1006F0001160022002E003210C4A11700FE00A4948
:100700000968012904D10021084A1170084A1160C2
:1007100005E00021054A1170054A116000BF00BFC5
:1007200070470000100121426C000020680000208A
:100730007000002008B50121042000F087F84FF474
:100740008040ADF8000010208DF8030003208DF8E4
:10075000020069460A48FFF7EBFE0121082000F07D
:1007600075F80320ADF8000010208DF80300032079
:100770008DF8020069460348FFF7DAFE08BD000065
:1007800000080140000C014070B5002100230F2239
:10079000C47804B3154C246804F4E064C4F5E06440
:1007A000210AC1F10403CA40447804FA03F18478B1
:1007B0001440214309010E4C0678A155047804F039
:1007C0001F050124AC4005786D11AD0005F1E02551
:1007D000C5F8004109E0047804F01F050124AC408D
:1007E000044D0678761145F8264070BD0CED00E00A
:1007F00000E400E080E100E002490143024A1160A8
:10080000704700000000FA050CED00E029B1064A2F
:10081000D2690243044BDA6104E0034AD26982439D
:10082000014BDA61704700000010024029B1064A0E
:1008300012690243044B1A6104E0034A12698243BD
:10084000014B1A61704700000010024029B1064AAE
:1008500092690243044B9A6104E0034A926982431D
:10086000014B9A61704700000010024029B1064A0E
:10087000D2680243044BDA6004E0034AD268824340
:10088000014BDA60704700000010024030B50021D3
:100890000022002400232D4D6D6805F00C0121B1CC
:1008A000042905D0082923D105E0294D056022E05F
:1008B000274D05601FE0254D6D6805F47012234D2E
:1008C0006D6805F48034022505EB92421CB9214D78
:1008D000554305600BE01D4D6D6805F400351DB1F5
:1008E0001C4D5543056002E0194D5543056002E07B
:1008F000174D056000BF00BF144D6D6805F0F00195
:100900000909154D6B5C0568DD4045600F4D6D684C
:1009100005F4E061090A104D6B5C4568DD408560B7
:100920000A4D6D6805F46051C90A0B4D6B5C456852
:10093000DD40C560054D6D6805F44041890B074DEC
:100940006B5CC568B5FBF3F5056130BD0010024076
:1009500000127A0000093D00A5000020B50000202B
:1009600008B54FF48070ADF8000003208DF8020048
:1009700010208DF8030069461548FFF7D9FD4FF4A4
:100980008050ADF8000003208DF8020010208DF893
:10099000030069460F48FFF7CBFD4FF48060ADF8C8
:1009A000000004208DF8030069460A48FFF7C0FDE7
:1009B0004FF40060ADF8000003208DF80200102015
:1009C0008DF8030069460348FFF7B2FD08BD00003B
:1009D00000080140000C014010B500F0A1F900F042
:1009E000ABF810BD70B506464FF480714748FFF76D
:1009F00033FE642404E00A2001F0DAFB601EC4B276
:100A0000002CF8D14FF480714048FFF727FEFA24FC
:100A100004E00A2001F0CCFB601EC4B2002CF8D127
:100A200000F050F9FA2404E0012001F0C1FB601E3F
:100A3000C4B2002CF8D100F073F8422000F0F6F9AF
:100A4000054600BF06E0324931F8140000F00CFA08
:100A5000601CC4B2032CF6DB2E49088800F004FAAF
:100A600040F60B3000F000FA40F6234000F0FCF9AD
:100A700029488078062823D12849497A4FF4E8523A
:100A800002EB011101F1090000F0EEF92249897829
:100A90004FF4F05202EB0111C81C00F0E5F93120CF
:100AA00000F0C4F9054605F0F80545F0050505F523
:100AB000445000F0D9F943F20C7000F0D5F912E07F
:100AC0001649497A4FF4E85202EB011101F108008E
:100AD00000F0CAF9104989784FF4F05202EB011185
:100AE000C81C00F0C1F941F6FF7000F0BDF94FF4E9
:100AF000005000F0B9F942F20C1000F0B5F944F2E0
:100B0000011000F0B1F900F0E3F870BD00080140F9
:100B100060260008662600086E2600087426000875
:100B200010B54FF4C47000F09FF910BD10B541F23C
:100B3000FF2000F099F910BD10B50020FFF752FF1B
:100B400044F6845000F090F942F2FF4000F08CF936
:100B500044F2010000F088F941F23F1000F084F9FE
:100B6000FFF7E4FF42F2152000F07EF90F2000F0BD
:100B70005DF9044604F5506000F076F940F20D107E
:100B800000F072F910BD2DE9F04104460027002065
:100B9000FFF728FF4FF47A7001F00AFB44F6875004
:100BA00000F062F94FF4105000F05EF944F2410099
:100BB00000F05AF9FFF7BAFF41F2F71000F054F9CC
:100BC00004F5085000F050F90E2000F02FF9064609
:100BD00006F5506000F048F90BE0222000F026F9FD
:100BE0000546A54200D105E0032F02DB0020BDE849
:100BF000F081F2E700BF2046F9E700002DE9F0415F
:100C00000546002603E00020A855701CC6B2202E21
:100C1000F9DB102000F00AF9074607F5506000F0F4
:100C200023F9012001F0C4FA0C488078062801D18C
:100C3000152403E0132000F0F9F804460848047076
:100C400022462946002000F0AFF8FFF76FFF012091
:100C500001F0AEFA2046BDE8F08100006E260008E3
:100C60007500002070B505460C4600262246294630
:100C70000020FFF701FC40F20B1000F0F5F809E04E
:100C8000701C80B20646B0F57A7F00DD09E00120D5
:100C900001F06EFA4FF480610948FFF7D4FC002898
:100CA000EED000BF122000F0C1F8FFF73FFF00F0C8
:100CB0000FF8B6F57A7F01DD002070BD2046FCE715
:100CC000000C014010B54FF4847000F0CDF810BD59
:100CD00010B540F2091000F0C7F810BD10B5FFF7CD
:100CE0002BFF10BD70B506460C4600252046FFF7C9
:100CF0004AFF054621463046FFF7B4FF054605206A
:100D000001F036FAFFF7EAFF002D04DD0348008802
:100D1000401C02490880E8B270BD00007C00002041
:100D200000B587B01E4800F0C3F801210820FFF786
:100D30008DFD01218803FFF769FD4FF46040ADF898
:100D4000040018208DF8070003208DF8060001A983
:100D50001448FFF7EDFB0020ADF808004FF4827057
:100D6000ADF80A000020ADF80C00ADF80E00ADF8AB
:100D700010004FF40070ADF812003820ADF81400E8
:100D80000020ADF816000720ADF8180002A90448AD
:100D900000F0C8F80121024800F07EF807B000BD5D
:100DA00000380040000C01402DE9F04106460F4696
:100DB0001546012D01DCBDE8F0814FF480510C484F
:100DC000FFF74AFC06F07F0000F014F8002405E06D
:100DD000FF2000F00FF83855601CC4B2AC42F7DBBE
:100DE0004FF480510248FFF739FC00BFE3E70000F1
:100DF000000C014010B5044600BF02210A4800F073
:100E000083F80028F9D02146074800F089F800BF90
:100E10000121054800F078F80028F9D0024800F0D8
:100E20007CF8C0B210BD00000038004070B5044628
:100E30004FF480510848FFF70FFC04F07F00FFF7E4
:100E4000D9FF00F00BF805464FF480510248FFF738
:100E500005FC284670BD0000000C014010B5FF20C5
:100E6000FFF7C8FF10BD000010B5044644F400446D
:100E70004FF480510748FFF7EFFB2012FFF7BAFF4E
:100E8000E0B2FFF7B7FF4FF480510248FFF7E6FBEF
:100E900010BD0000000C014021B1028842F0400268
:100EA000028004E002884FF6BF731A400280704748
:100EB00010B504461148844208D101218014FFF77F
:100EC000D5FC0021A014FFF7D1FC16E00C488442A9
:100ED00008D101210014FFF7A9FC00212014FFF71D
:100EE000A5FC0AE00748844207D10121C013FFF79F
:100EF0009DFC0021E013FFF799FC10BD003001407C
:100F000000380040003C00400246002013890B409E
:100F10000BB1012000E0002070470146888970472E
:100F20008181704710B50022028802F441520B887B
:100F30004C8823438C882343CC8823430C89234348
:100F40004C8923438C892343CC8923431A43028051
:100F5000838B4FF2FF74234083830B8A038210BD7F
:100F600010B500F001F810BD0CB500200190009004
:100F70003348006840F480303149086000BF304891
:100F8000006800F4003000900198401C0190009827
:100F900018B90198B0F5A06FF1D12948006800F4A4
:100FA000003010B10120009001E000200090009876
:100FB000012843D12348006840F01000214908600F
:100FC0000846006820F0030008600846006840F00A
:100FD000020008601A48406819494860084640689D
:100FE00048600846406840F48060486008464068B1
:100FF00020F47C1048600846406840F4E8104860DF
:101000000846006840F08070086000BF0C48006827
:1010100000F000700028F9D00948406820F0030073
:10102000074948600846406840F00200486000BF39
:101030000348406800F00C000828F9D10CBD0000FE
:10104000001002400020024070B5002016E0002190
:1010500000EB40021E4B03EB8202516000EB4002AA
:1010600003EB8202916000EB400203EB82025170BD
:1010700000EB400203F82210411CC8B20428E6DB52
:10108000144909684FF47A73B1FBF3F2511EB1F1C0
:10109000807F00D31BE0511E4FF0E02359615917A8
:1010A0000F23002904DB1C07250E0B4C655406E0BA
:1010B0001C07260E094C01F00F052D1F665500BFB9
:1010C00000214FF0E02399610721196100BF70BD35
:1010D000F4000020BC00002000E400E018ED00E077
:1010E00010B500F001F810BD10B51C48006840B103
:1010F0001A480068401E1949086010B901201849B3
:101100000870002408E004EB4401164A02EB810059
:1011100001F028F9601CC4B2042CF4DB124800680A
:10112000401C11490860084600686FF00041884281
:1011300002D100200C49086001F013F90B48007837
:10114000401CC0B2094908700A2803DB002008705F
:1011500001F006F9064800F033F910BD80000020C8
:1011600084000020F4000020880000208C00002073
:101170001000002010B51348006840F0010011492C
:10118000086008464068104908400E494860084613
:1011900000680E4908400B4908600846006820F4C2
:1011A000802008600846406820F4FE0048604FF444
:1011B0001F008860FFF7D4FE4FF00060044908600C
:1011C00010BD0000001002400000FFF8FFFFF6FE17
:1011D00008ED00E010B50221480700F05BF858B1B7
:1011E0000221480700F044F800220221480700F0DD
:1011F00062F81B48006880470421080700F04AF89D
:1012000058B10421080700F033F800220421080730
:1012100000F051F81348006880470821C80600F024
:1012200039F858B10821C80600F022F80022082138
:10123000C80600F040F80C48006880471021880676
:1012400000F028F858B11021880600F011F80022AB
:101250001021880600F02FF804480068804710BD70
:101260009000002094000020980000209C000020A6
:10127000CA430282704721B1028842F00102028013
:1012800004E002884FF6FE731A4002807047014660
:10129000888C704730B50246002000230024158A50
:1012A00005EA0103958905EA010413B10CB1012097
:1012B00000E0002030BD1AB183890B43838102E036
:1012C00083898B438381704781867047018770478C
:1012D00081877047A0F84010704700000022028804
:1012E0001D4B98420ED01D4B98420BD0B0F1804F51
:1012F00008D01B4B984205D01A4B984202D01A4B8B
:10130000984204D14FF68F731A404B881A43174BFB
:10131000984207D0164B984204D04FF6FF431A402C
:10132000CB881A4302808B8883850B8803850A4B00
:1013300098420BD0094B984208D00E4B984205D0EA
:101340000D4B984202D00D4B984201D10B7A038687
:101350000123838270470000002C014000340140CB
:101360000004004000080040000C00400010004055
:10137000001400400040014000440140004801408A
:1013800070B50546002414E004EB440005EB800032
:10139000407801280BD104EB440105EB81018868FA
:1013A0008047002004EB440105EB81014870601C7C
:1013B000C4B2024800788442E6DB70BD74000020AD
:1013C0000146002033E000EB400211F8222062BB0E
:1013D00000EB400201EB82025288002A25DD00EB7F
:1013E000400201EB82025288521E00EB400301EBE7
:1013F00083035A8000EB400201EB82025288A2B9BB
:1014000000EB400211F822204AB900EB400201EB48
:101410008202928800EB400301EB83035A80012291
:1014200000EB400301EB83035A70421CD0B2024A26
:1014300012789042C7DB70477400002007200149F2
:10144000087070477400002010B5FEF7E5FF10BD6E
:1014500000B5FFF713F90149086000BD64000020E2
:101460000448006808B9012000E000200149086034
:1014700070470000B001214203480068022802D1F1
:10148000002002490860704764000020B401224235
:1014900010B513480078012820D11248FFF7AEFBA1
:1014A000FFF71CFC0F480078242814D10D48407821
:1014B000232810D10B48807853280CD10948C078D4
:1014C000542808D1012008490870002007490876EF
:1014D000CD210648418300200149087010BD00005D
:1014E00000000020D4000020040000201000002094
:1014F00010B51848007800B910BD174890F896004C
:10150000052800DAF8E70020124908701248007830
:10151000242807D010480079232803D00FA000F01A
:10152000CFFB11E00C484078502803D00A4840789F
:10153000482809D1084880780C4988700648C07846
:10154000C87001200A4908700020034981F89600FC
:1015500000BFD1E7A3000020C41900206572726F9C
:101560007220696E20686561642100000600002019
:101570000500002010B515480078012825D1144831
:101580000078012821D126201249087003204870D4
:10159000FFF766F86421484340F62E2190FBF1F0F6
:1015A0000C4908712520487106210A48FFF79AFB6B
:1015B00006220021074800F09BFF0120064908761B
:1015C0000020024908700249087010BD0400002084
:1015D00005000020060000201000002008B525208E
:1015E0008DF8000000208DF8020001208DF8030026
:1015F0006846FFF7C9F826208DF8000001208DF815
:1016000002008DF803006846FFF7BEF827208DF82A
:10161000000002208DF8020001208DF803006846CA
:10162000FFF7B2F808BD10B500F0E0F800F004F8DC
:10163000FFF7D4FF10BD000000B585B001210520E3
:10164000FFF704F901218803FFF700F94FF4007058
:10165000ADF8100018208DF8130003208DF812004B
:1016600004A95D48FEF764FF4FF48060ADF81000F8
:1016700004208DF8130004A95748FEF759FF4FF4D2
:10168000E13000900020ADF80400ADF80600ADF8A0
:101690000800ADF80C000C20ADF80A0069464F4870
:1016A00000F088F9012240F225514C4800F05DF924
:1016B00001214A4800F023F94021484800F016F97A
:1016C00001210520FFF7C2F801214804FFF79EF829
:1016D0000420ADF8100018208DF8130003208DF8B9
:1016E000120004A93C48FEF723FF0820ADF81000C3
:1016F00004208DF8130004A93748FEF719FF04A948
:101700003548FEF715FF4FF4E13000900020ADF8AA
:101710000400ADF80600ADF80800ADF80C000C2090
:10172000ADF80A0069462E4800F044F9012240F263
:1017300025512B4800F019F90121294800F0DFF864
:101740004021274800F0D2F801210920FFF77EF858
:1017500001218804FFF75AF84FF48060ADF81000BB
:1017600018208DF8130003208DF8120004A91D48DD
:10177000FEF7DEFE4FF40060ADF8100004208DF897
:10178000130004A91748FEF7D3FE04A91548FEF775
:10179000CFFE4FF4E13000900020ADF80400ADF82A
:1017A0000600ADF80800ADF80C000C20ADF80A00FA
:1017B00069460D4800F0FEF8012240F225510A4822
:1017C00000F0D3F80121084800F099F840210648BC
:1017D00000F08CF805B000BD000801400038014061
:1017E00000440040000C01400048004022482349CA
:1017F000086023484860234888604FF480608881EF
:10180000C881002008824882C88208834883888271
:10181000C86108621C4848621C481D4908601D4890
:1018200048601D4888604FF480608881C88100202E
:1018300008824882C882088348838882C861086217
:101840001648486216481749086017484860174804
:1018500088604FF480608881C881002008824882B7
:10186000C8820883488388821148C8611148086289
:101870001148486270470000003801404C010020C8
:101880007401002074050020E91A0008004400409B
:10189000740900209C0900209C0D0020491B0008B1
:1018A000004800409C110020C4110020C4150020F5
:1018B000631B0008651B0008611B000810B5024887
:1018C00000F051F910BD00004C01002010B5024895
:1018D00000F049F910BD00007409002010B502485D
:1018E00000F041F910BD00009C11002001F40072CD
:1018F000B2F5007F00D100BFCA430280704721B11A
:10190000828942F40052828104E082894DF6FF739D
:101910001A408281704770B50246002400230025DA
:10192000002040F66A16B14200D100BFC1F3421553
:1019300001F01F03012606FA03F3012D02D1968957
:10194000334006E0022D02D1168A334001E0968A28
:1019500033400C12012606FA04F41688344013B101
:101960000CB1012000E0002070BDF0B5034600245A
:1019700000260025002040F66A17B94200D100BFBA
:101980001846C1F3421401F01F06012707FA06F5B5
:10199000012C01D10C3004E0022C01D1103000E008
:1019A00014301AB107682F43076002E00768AF439D
:1019B0000760F0BD2DE9F04786B005460E460024CD
:1019C000A24600BFA1460027B08900B100BF2F4644
:1019D0002C8A4CF6FF700440F08804432C82AC89BA
:1019E0004EF6F3100440B0883189084371890843EA
:1019F0000443AC81AC8A4FF6FF400440B0890443F5
:101A0000AC8201A8FEF742FF1F48874202D1DDF8F1
:101A100010A001E0DDF80CA0A88900F4004040B15E
:101A20000AEBCA0000EB0A1031684900B0FBF1F87C
:101A300007E00AEBCA0000EB0A1031688900B0FB2E
:101A4000F1F86420B8FBF0F004012009642101FBE7
:101A50001089A88900F4004040B1322000EBC90091
:101A6000B0FBF1F000F00700044308E0322000EB87
:101A700009106421B0FBF1F000F00F0004432C8149
:101A800006B0BDE8F08700000038014001468888B4
:101A9000C0F308007047C1F308028280704700005D
:101AA00070B5044600200D49087040F22F150C4A0D
:101AB0002946012000F064FC0A4890F89600962818
:101AC0000ADA084890F8961090F89600401C054AEB
:101AD00082F896001046445470BD0000A300002018
:101AE000F51A0008C419002010B504462046FFF777
:101AF000D7FF10BD0120014908707047A3000020E6
:101B000070B5044600200D49087040F22F150C4AAC
:101B10002946022000F034FC0A4890F896009628E6
:101B20000ADA084890F8961090F89600401C054A8A
:101B300082F896001046445470BD0000A4000020B6
:101B4000551B0008F41A002010B504462046FFF784
:101B5000D7FF10BD0120014908707047A400002084
:101B600070477047704770B5044640F225512068B1
:101B7000FFF7D1FEE0B12068FFF788FFC5B2E18A28
:101B8000A0684554E08A401C80B2E082E189884226
:101B900001DB0020E082608BE189884202DA608B01
:101BA000401C6083606A10B12846616A884700BFA4
:101BB00040F227712068FFF7AEFE08B3A08A60B933
:101BC000002240F227712068FFF7CFFE012240F289
:101BD00026612068FFF7C9FE37E0638A6268D15C3E
:101BE0002068FFF758FF608A401C80B26082A1899C
:101BF000884201DB00206082A08A401EA08224E08F
:101C000040F226612068FFF786FEF0B1A08A50B945
:101C1000002240F226612068FFF7A7FE206AA0B1EB
:101C2000206A804711E0638A6268D15C2068FFF710
:101C300032FF608A401C80B26082A189884201DB49
:101C400000206082A08A401EA08270BDF8B50446C4
:101C50000E461746002529E00EE0012000F052F85C
:101C6000A08A0090002000F04DF8A089BDF8001077
:101C7000884200DD01E000BFEFE700BF705D228A0F
:101C800061688854012000F03DF8208A401C80B231
:101C90002082A189884201DB00202082A08A401C8A
:101CA000A082002000F02EF8681C85B2BD42D3DB74
:101CB000012240F227712068FFF757FEF8BD0000AF
:101CC0000FB4054B10B503A9044A029800F01EF8A2
:101CD00010BC5DF814FB000085240008D000002033
:101CE00002E008C8121F08C1002AFAD170477047E5
:101CF000002001E001C1121F002AFBD1704780F3D0
:101D00001088704780F31088704700002DE9FF4F5E
:101D10008DB00F460546002606E025280BD0DDE9EC
:101D20000F1290476D1C761C28780028F5D111B051
:101D30003046BDE8F08F0024A246A1460122EC49BE
:101D400000E0044315F8013F203B02FA03F008428B
:101D5000F7D128782A2810D06FF02F022878A0F128
:101D60003001092914D80AEB8A0102EB410144F041
:101D7000020400EB010A6D1CF0E701CF5FEA000AE4
:101D800003D544F40054CAF1000A44F002046D1C67
:101D900028782E2817D115F8010F44F004042A28BA
:101DA0000ED06FF02F022878A0F1300109290AD84F
:101DB00009EB890102EB410100EB01096D1CF2E71F
:101DC00057F8049B6D1C28786C280FD006DC4C2833
:101DD00017D068280DD06A2814D104E0742810D0D8
:101DE0007A280FD10DE044F400140AE044F4801482
:101DF00001E044F440146978814202D104F5801472
:101E00006D1C6D1C2A786E2A1FD00CDC632A31D021
:101E100004DC002A8BD0582A11D1A3E0642A68D0B0
:101E2000692A0CD165E0732A2ED004DC6F2A73D0A6
:101E3000702A04D19BE0752A6FD0782A6ED01046A4
:101E4000DDE90F129047761C50E1C4F302500228DE
:101E500006D0032809D0042801CF09D0066045E147
:101E600001CFF117C0E9006140E101CF06803DE1FB
:101E700006703BE117F8040B8DF8000000208DF888
:101E80000100EB46012003E057F804BB4FF0FF30A0
:101E900061074FF0000102D40DE008F1010188460E
:101EA00049450FDA8045F8DB1BF808100029F4D10A
:101EB00008E008F1010188468142FADB1BF80810AE
:101EC0000029F6D1DDE90F23AAEB0800814621465F
:101ED00000F036F9304400EB080604E0DDE90F12AB
:101EE0001BF8010B9047B8F10108F7D2214648468C
:101EF000F7E00A21C4F302534FF0000B0891022BC4
:101F000004D001CFC117032B09D00AE0FF1D27F031
:101F10000707F7E8020108E032E01FE020E000B226
:101F2000C117042B01D140B2C117031E71F1000388
:101F300007DA4FF0000CD0EB0C006CEB01012D2305
:101F400002E0230504D52B238DF82430012303E080
:101F5000E30701D02023F7E7984658E00A2110E074
:101F600010210EE010204FF0000B08900CE0102123
:101F70004FF0000B44F004044FF00809089103E00F
:101F800008214FF0000B0891C4F30253022B04D038
:101F900001CF0021032B06D006E0FF1D27F0070725
:101FA000F7E8020103E080B2042B00D1C0B24FF089
:101FB000000823072BD5702A07D0DDF820C08CF04D
:101FC000100C5CEA0B0C05D00EE040238DF8243099
:101FD000012308E050EA010306D030238DF82430B5
:101FE0008DF8252002239846DDF820C08CF0080CDF
:101FF0005CEA0B0C0BD150EA010301D1630706D553
:1020000030238DF824304FF00108A9F10109582A36
:1020100004D038A20B9208AA0A920BE03AA2F9E780
:102020005B46089AFEF77EF80B9B9B5C0A9A521E51
:102030000A92137050EA0102F2D10A98ADEB000047
:1020400000F1200B600702D524F4803401E04FF04A
:102050000109D94502DDA9EB0B0000E0002000EBEF
:102060000B0141440890AAEB010AE00306D4DDE924
:102070000F232146504600F063F806444FF0000954
:1020800008E009A911F80900DDE90F12904709F1EC
:102090000109761CC145F4DBE0030CD5DDE90F2313
:1020A0002146504600F04CF8064404E0DDE90F12EA
:1020B00030209047761C0899481E08900029F5DCCE
:1020C00008E00A980A990078491C0A91DDE90F1284
:1020D0009047761CBBF10001ABF1010BF1DC21460E
:1020E0005046DDE90F2300F019F806446D1C1BE68D
:1020F00009280100303132333435363738396162DE
:1021000063646566000000003031323334353637A1
:102110003839414243444546000000002DE9F04172
:10212000044600251E461746880404D405E03946B7
:102130002020B0476D1C641EF9D52846BDE8F0810B
:102140002DE9F041044600251E469046C80301D5FE
:10215000302700E02027880404D505E041463846B2
:10216000B0476D1C641EF9D52846BDE8F08100001B
:1021700010B5044604B910BD012C00D10224012081
:10218000FFF7BDFD08480460002008490870FFF70C
:10219000B6FD04E005480078012800D100E0F9E729
:1021A00000BF00BFE7E7000080000020840000209F
:1021B000F0B5034600224FF0E02675690F4E3668F1
:1021C0000F4FB6FBF7F606FB03F400BF4FF0E02617
:1021D000B16910E04FF0E026B06988420BD0884228
:1021E00002D20E1A324402E02E1A0E443244014644
:1021F000A24200D300E0EDE700BFF0BDBC0000202C
:1022000040420F007FB501210846FEF7FFFA15484E
:10221000006846081448B6FBF0F085B24FF6FF742C
:10222000ADF80840ADF804500020ADF80A00ADF854
:10223000060001A94FF08040FFF750F80121880700
:10224000FFF719F81C208DF8000004208DF801001C
:1022500000208DF8020001208DF803006846FEF78B
:1022600093FA7FBDBC00002040420F0010B5024829
:10227000FFF786F810BD00001000002010B54FF4E5
:102280004070FEF7B9FAFEF755FA00F00FF8FEF7C6
:10229000DBFEFFF7B7FFFFF7C6F9FDF7B1FFFEF76B
:1022A0005FFBFEF799FBFEF719FD10BD08B5012194
:1022B0000820FEF7CBFA6020ADF8000048208DF82A
:1022C000030003208DF8020069461E48FEF730F92E
:1022D00001210420FEF7BAFA1020ADF800004820D2
:1022E0008DF8030003208DF8020069461648FEF7BA
:1022F0001FF901211120FEF7A9FA14484068C0F324
:1023000013001249486008464068114908430F49C4
:1023100048601048006840F480700E4908600E481C
:10232000006A20F001000C4908620C48008820F087
:1023300001000A4908800748006820F480700549B8
:10234000086008BD000C0140000801400010014079
:10235000000020220070004000100240306C00405D
:1023600070477047416851B14168491E416031B9B9
:10237000012141700178012901D1816841607047D4
:102380002DE9F04104460F461546052F00D37F1F67
:102390004FF08040FEF77BFF804608EB0706012CDC
:1023A0000FD125480560B1B2A007FEF78DFF0221CD
:1023B0004807FEF75DFF012202214807FEF77BFF79
:1023C00038E0022C0FD11D480560B1B26007FEF75E
:1023D0007DFF04210807FEF74BFF012204210807B7
:1023E000FEF769FF26E0032C10D115480560B1B255
:1023F0004FF08040FEF76CFF0821C806FEF738FF5B
:1024000001220821C806FEF756FF13E0042C0FD165
:102410000C480560B1B22007FEF75CFF102188066A
:10242000FEF726FF012210218806FEF744FF01E097
:10243000BDE8F08100BFFBE7900000209400002081
:10244000980000209C00002070B500260B4805680D
:1024500095B90FE06420FFF78BFE701CC0B20646F2
:102460000A2803DD01200649086004E003480468E7
:1024700004B10026EEE700BF70BD0000100121424C
:10248000B401224270B504460D46E1B20020FEF7C9
:102490002AF8204670BD0000FFF7F0FE00F032F889
:1024A0000A20FFF765FEFEF7C9FF01200C4908600E
:1024B0000C49C1F8AC010A49091D08600949C1F875
:1024C000B001FFF7C1FF0AE04FF480610648FEF754
:1024D000BAF810B1012005490870FFF7C7FEF3E70D
:1024E0008081214200002142000C014000000020B8
:1024F00010B501E000F8011B131EA2F10102F9D191
:1025000010BD000010B513A0FFF7DAFB20A121A039
:10251000FFF7D6FB24A12EA0FFF7D2FB31A132A0FA
:10252000FFF7CEFB35A138A0FFF7CAFB3BA136A0D1
:10253000FFF7C6FB0023052203213BA0FFF7C0FBEA
:10254000002205213FA0FFF7BBFB02A0FFF7B8FB6D
:1025500010BD00002A2A2A2A2A2A2A2A2A2A2A2AB6
:102560002A2A2A2A2A2A2A2A2A2A2A2A2A2A2A2ACB
:102570002A2A2A2A2A2A2A2A2A2A2A2A2A2A2A2ABB
:102580002A2A2A2A2A2A2A2A2A2A2A2A0D0A00003C
:10259000303100002A20B4D3BBFAA3AC4944CEAA00
:1025A000203A2025730D0A00B4AEBFDABACD5043ED
:1025B000BBFACDA8D0C5A3A8B4AEBFDAD6D0B6CFEB
:1025C000A1A24649464FBBFAD6C6A3A90000000007
:1025D0002A20B3CCD0F2C3FBB3C62020203A20255A
:1025E000730D0A00312E30002A20B3CCD0F2B0E6B1
:1025F000B1BE2020203A2025730D0A004D617920BC
:1026000020342032303137002A20B7A2B2BCC8D5DE
:10261000C6DA2020203A2025730D0A0031343A35DD
:10262000393A3535000000002A20B9CCBCFEBFE2A3
:10263000B0E6B1BE203A2025642E25642E25640D17
:102640000A0000002A20434D534953B0E6B1BE2092
:10265000203A2025582E253032580D0A000000005F
:102660006C0680070008FF09FC09F909F60907084C
:10267000090A0B0C000102030405060708093132A0
:10268000333435363738393041424344454647487C
:10269000494A4B005358313237380000BC260008F5
:1026A00000000020D4000000E01C00089027000873
:1026B000D4000020541F0000F01C0008000000009F
:1026C00000000000000000000000000000000A0000
:1026D000E80300006114000800000100020000008F
:1026E0009114000801006400000000007515000846
:1026F0000000010001000000F114000800000100CA
:102700000A00000051140008000002000800000048
:1027100079140008000003000A00000049140008B2
:1027200000000000000000000000000000000000A9
:1027300000000000942600080000000000000000D7
:102740000000000000000000000000000000000089
:102750000000000000000000000000000000000079
:102760000000000000010203040102030406070840
:10277000090204060800000000A24A04000000004C
:102780000000000001020304060708090000000021
:04000005080000ED02
:00000001FF
