:020000040800F2
:10000000E81F0020450100084D0100084F010008CD
:1000100051010008530100085501000800000000CC
:100020000000000000000000000000005701000870
:1000300059010008000000005B010008A11700083A
:100040005F0100085F0100085F0100085F01000810
:100050005F0100085F0100085F0100085F01000800
:100060005F0100085F0100085F0100085F010008F0
:100070005F0100085F0100085F0100085F010008E0
:100080005F0100085F0100085F0100085F010008D0
:100090005F0100085F0100085F0100085F010008C0
:1000A0005F0100085F0100085F0100085F010008B0
:1000B000951800085F0100085F0100085F01000853
:1000C0005F0100085F0100085F0100085F01000890
:1000D0005F010008ED1E0008FD1E00080D1F00084E
:1000E0005F0100085F0100085F0100085F01000870
:1000F0005F0100085F0100085F0100085F01000860
:100100005F0100085F0100085F0100085F0100084F
:100110005F0100085F0100085F0100085F0100083F
:100120005F0100085F0100085F0100085F0100082F
:10013000DFF80CD000F060F900480047F124000817
:10014000E81F00200648804706480047FEE7FEE714
:10015000FEE7FEE7FEE7FEE7FEE7FEE7FEE7FEE777
:1001600035180008310100082DE9FE4F81EA03042B
:1001700004F0004421F0004100944FF0000B23F004
:10018000004350EA01045ED052EA03045BD0C3F39B
:100190000A54C1F30A552C44A4F2F3340194A0FB91
:1001A0000254C1F3130141F48011C3F3130343F468
:1001B000801301FB024400FB034E840A970A44EAC1
:1001C000815447EA8357A4FB076802958D0A05FB13
:1001D00007854FEA932C04FB0C542705029D4FEA38
:1001E000065847EA1637B5EB08056EEB070C870E85
:1001F000920E47EA811742EA8312A7FB0201B6EB8F
:100200000B0164EB00042B0D43EA0C335E1844EB46
:100210001C50DA465146E7FB0201C5F313044FEACE
:100220000B3343EA14534FEA0432019C43EA0603BA
:10023000A4F10C040294009CCDE900B400F08DF808
:1002400003B0BDE8F08F00200146F9E796230022B5
:10025000114600F045B8C1F30A5210B5C1F31301BD
:1002600040F2FF3341F480119A4201DA002010BDC0
:1002700040F233439A42A2F2334203DC524200F08E
:1002800016F810BD904010BD00F0004230F0004064
:100290000AD0C10D01F56071C0F3160042EA0151A8
:1002A000C208400711437047002001467047202ACA
:1002B00004DB203A21FA02F00021704721FA02F310
:1002C000D040C2F1200291400843194670470029EE
:1002D000A8BF7047401C490008BF20F001007047CC
:1002E00010B4B0FA80FC00FA0CF050EA010404BF2C
:1002F00010BC704749B1CCF1200421FA04F411FA82
:100300000CF118BF012121430843A3EB0C01CB1DC5
:100310004FEA00614FEA102042BF002010BC704736
:1003200000EBC35010440029A4BF10BC7047401C10
:10033000490008BF20F0010010BC704710B5141E22
:1003400073F1000408DA401C41F1000192185B418E
:100350001A4301D120F0010010BD2DE9F04D924665
:100360009B4611B1B1FA81F202E0B0FA80F220327C
:10037000904600F053F804460F4640EA0A0041EA6E
:100380000B0153465A46084313D0114653EA010065
:1003900019D0C8F140025046FFF789FF05460E46C6
:1003A00050465946424600F039F8084305D001202E
:1003B00004E020463946BDE8F08D0020054346EABA
:1003C000E0762C4337430A986305E40AA0EB080063
:1003D0000022FD0A44EA47540A3002D500200146B3
:1003E000E9E7010510196941DDE90845001969418E
:1003F000BDE8F04DA2E70000064C074D06E0E068BE
:1004000040F0010394E8070098471034AC42F6D35B
:10041000FFF792FEA8360008C8360008202A04DB41
:10042000203A00FA02F1002070479140C2F1200307
:1004300020FA03F319439040704738B5044620462C
:10044000FFF704FF0546694600F0A2F89DF800108A
:10045000852000F083F99DF80110862000F07EF9D8
:100460009DF80210872000F079F938BD38B50446B0
:10047000200A8DF80000E0B28DF801009DF8001010
:10048000882000F06BF99DF80110892000F066F9D2
:1004900038BD38B504462046FFF7D8FE0546694604
:1004A00000F076F89DF80010822000F057F99DF8D2
:1004B0000110832000F052F99DF80210842000F012
:1004C0004DF938BD2DE9F04104460D4616461F464C
:1004D000DDF8188044EA05003043384340EA08005C
:1004E0000749086008460088C0F30721802000F013
:1004F00035F903480178812000F030F9BDE8F0813A
:100500006800002010B5074800684FF6EF710840FA
:1005100040F010000349086008460178812000F08F
:100520001DF910BD6800002010B508480088C0F310
:100530000B0040F480500549086008460088C0F36D
:100540000721802000F00AF910BD0000680000209B
:100550002DE9F04105460E4617464FF480510B48F1
:1005600000F0C8F845F0800000F098FF002404E097
:10057000305D00F093FF601CC4B2BC42F8DB4FF466
:100580008051024800F0B8F8BDE8F081000C01404D
:100590002DE9F04782460C465046FFF775FE0746A8
:1005A000084A094BFFF7E0FD0546FFF754FE814678
:1005B0004FEA194020704FEA1920607084F80290C9
:1005C000BDE8F087B30669014C0040402DE9F041D9
:1005D000024600250026002000230024002791F871
:1005E00003C00CF00F0591F803C00CF0100CBCF127
:1005F000000F03D091F802C04CEA050591F800C045
:10060000BCF1000F31D0146800202BE04FF0010C3A
:100610000CFA00F3B1F800C00CEA03069E4220D1A8
:1006200083004FF00F0C0CFA03F7BC4305FA03FCF0
:100630004CEA040491F803C0BCF1280F06D14FF036
:10064000010C0CFA00FCC2F814C00AE091F803C0D7
:10065000BCF1480F05D14FF0010C0CFA00FCC2F8B8
:1006600010C0401C0828D1D31460B1F800C0BCF100
:10067000FF0F34DD546800202EE000F1080C4FF02D
:10068000010808FA0CF3B1F800C00CEA03069E4218
:1006900021D183004FF00F0C0CFA03F7BC4305FA8D
:1006A00003FC4CEA040491F803C0BCF1280F05D107
:1006B00000F1080C08FA0CF8C2F8148091F803C095
:1006C000BCF1480F07D100F1080C4FF0010808FAFF
:1006D0000CF8C2F81080401C0828CED35460BDE846
:1006E000F0810246002093680B400BB1012000E02E
:1006F000002070474161704701617047012080F31D
:10070000108800BF03480188002080F3108800BFD4
:10071000084670478C00002070B502460024002572
:1007200000230020958A138B1B0445EA030626F05C
:100730007F4404EA01068E4201D1012000E000203E
:1007400070BD21B1028842F00102028004E00288FB
:100750004FF6FE731A4002807047000070B50446E1
:100760000D460121194800F06BF800BF18491748E1
:10077000FFF7D2FF0028F9D016480178002213486D
:1007800000F00EF900BF14491048FFF7C5FF00281C
:10079000F9D021460D4800F00CF900BF0E49891C24
:1007A0000A48FFF7B9FF0028F8D02946074800F0AB
:1007B00000F900BF0849891C0448FFF7ADFF002875
:1007C000F8D00121014800F047F870BD0054004006
:1007D00001000300920000208200070010B500F025
:1007E00009F800F0BBF81A200149088010BD00008C
:1007F0009200002008B50121480500F029FB0121E5
:10080000082000F045FB4020ADF8000003208DF8E3
:1008100002001C208DF8030069460848FFF7D6FE49
:100820008020ADF8000003208DF802001C208DF818
:10083000030069460148FFF7C9FE08BD000C0140EE
:1008400021B1028842F48072028004E002884FF6EF
:10085000FF631A400280704721B1028842F400729F
:10086000028004E002884FF6FF531A40028070476E
:100870002DE9F04385B004460D460026B146042715
:10088000DFF8CC80A6884FF6C0700640684600F0BE
:100890001FFBDDF808802F48B8FBF0F01FFA80F945
:1008A00046EA0906A68020884FF6FE71084020809F
:1008B00000262949286888420CD828684000B8FBDF
:1008C000F0F087B2042F00DA04273E4309F101005B
:1008D000208427E0E8884BF6FF71884206D128681B
:1008E00000EB4000B8FBF0F087B209E0286800EBAD
:1008F000C00101EB0010B8FBF0F087B247F480476D
:10090000C7F30B0008B947F0010747F4004006435E
:100910004FF4967009FB00F04FF47A7190FBF1F000
:10092000401C2084A683208840F001002080268877
:100930004FF6F5300640A8886989084306432680AB
:10094000A88929890843208105B0BDE8F08300000B
:1009500000127A0040420F00A08601001FB500205F
:10096000ADF804004BF6FF70ADF806007C20ADF842
:1009700008004FF48060ADF80A000001ADF80C00EB
:100980000548009069460548FFF772FF01210348BA
:10099000FFF7D7FE1FBD0000801A0600005400407C
:1009A00012B141F0010102E04FF6FE7319400182DD
:1009B000704701827047F8B544F62060FFF769FD83
:1009C0006420FFF73AFD4FF4FA70FFF74FFD002067
:1009D00003464FF48072014600904FF43040FFF719
:1009E00071FDFFF78FFDFFF79FFD002407E0002555
:1009F00001E000266D1CB5F57A7FFADB641CB4F5C6
:100A00007A7FF4DBF8BD0000002029490968294AF3
:100A100011602949097831B101290FD002291BD071
:100A200003293CD131E02349096819B90121224A3F
:100A3000117002E00021204A117036E01D4909685A
:100A400031B902211C4A117000211C4A116002E0D8
:100A50000021194A117028E01649096889B9022154
:100A6000154A117015490968491C144A1160012082
:100A700011460968B1F5967F06D900211160022060
:100A800002E003210C4A11700FE00A4909680129AC
:100A900004D10021084A1170084A116005E00021C4
:100AA000054A1170054A116000BF00BF7047000081
:100AB0001001214254000020500000205800002066
:100AC00007E040F2375100BF0A1EA1F10101FBD13E
:100AD000401E0028F5D170472DE9F04706460F4625
:100AE000904600250024A14631E018F8090020387E
:100AF000C5B2782E02DD0026781CC7B239463046D2
:100B000000F066F9002407E004EB0511134A505C7D
:100B100000F092F9601CC4B2082CF5DB781CC1B25D
:100B2000304600F055F9002408E004EB05110831C7
:100B30000A4A505C00F080F9601CC4B2082CF4DB57
:100B400006F10800C6B209F1010000F0FF0918F82B
:100B500009000028C9D1BDE8F08700007A300008FC
:100B600008B50121402000F093F94FF48040ADF822
:100B7000000010208DF8030003208DF80200694664
:100B80001148FFF723FD4FF48040ADF8000069469F
:100B90000D48FFF71BFD4FF48040ADF8000069469B
:100BA0000948FFF713FD4FF480410748FFF7A4FD04
:100BB0004FF480410448FFF79FFD4FF48041024805
:100BC000FFF79AFD08BD00000018014070B5002134
:100BD00000230F22C47804B3154C246804F4E064A5
:100BE000C4F5E064210AC1F10403CA40447804FA60
:100BF00003F184781440214309010E4C0678A15575
:100C0000047804F01F050124AC4005786D11AD0097
:100C100005F1E025C5F8004109E0047804F01F055E
:100C20000124AC40044D0678761145F8264070BD8D
:100C30000CED00E000E400E080E100E008B50121F7
:100C4000082000F025F90320ADF8000010208DF8F1
:100C5000030003208DF8020069460248FFF7B6FC46
:100C600008BD0000000C014070B5002418E004F13C
:100C7000B001C8B200F0D4F8012000F0D1F8102083
:100C800000F0CEF8002504E0002000F0D5F8681C44
:100C9000C5B2802DF8DBC820FFF712FF601CC4B27C
:100CA000082CE4DB70BD70B50646202000F0B8F8D3
:100CB000002000F0B5F8212000F0B2F8002000F08C
:100CC000AFF87F2000F0ACF8222000F0A9F8002057
:100CD00000F0A6F8072000F0A3F80120FFF7F0FECF
:100CE00000240AE0002504E0304600F0A5F8681C66
:100CF000C5B2802DF8DB601CC4B2082CF2DB70BDDD
:100D000008B50320ADF8000010208DF80300032083
:100D10008DF8020069462B48FFF758FC00202A494D
:100D200008603220FFF7CCFE01202849C1F880017D
:100D3000AE2000F075F8A82000F072F83F2000F017
:100D40006FF8D32000F06CF8002000F069F8402024
:100D500000F066F8A12000F063F8C82000F060F809
:100D6000DA2000F05DF8122000F05AF8812000F03F
:100D700057F8CF2000F054F8A42000F051F8A62036
:100D800000F04EF8D52000F04BF8802000F048F835
:100D90008D2000F045F8142000F042F8AF2000F05C
:100DA0003FF8D92000F03CF8F82000F039F8DB20BB
:100DB00000F036F8402000F033F80020FFF773FF12
:100DC00008BD0000000C01408081214200802142CA
:100DD00070B504460D4605F00701B031C8B200F009
:100DE0001FF804F00F0000F01BF8102141EA141066
:100DF00000F016F870BD000010B5044600BF0221D7
:100E0000064800F0D5FB0028F9D02146034800F041
:100E1000DBFB022001F064FA10BD0000003001404D
:100E200010B504460020034908602046FFF7E4FFA0
:100E300010BD00008481214210B504460120034901
:100E400008602046FFF7D8FF10BD000084812142D2
:100E500029B1064AD2690243044BDA6104E0034A2D
:100E6000D2698243014BDA617047000000100240F2
:100E700029B1064A12690243044B1A6104E0034A8D
:100E800012698243014B1A61704700000010024052
:100E900029B1064A92690243044B9A6104E0034A6D
:100EA00092698243014B9A61704700000010024032
:100EB00029B1064AD2680243044BDA6004E0034ACF
:100EC000D2688243014BDA60704700000010024094
:100ED00030B500210022002400232D4D6D6805F05F
:100EE0000C0121B1042905D0082923D105E0294DA1
:100EF000056022E0274D05601FE0254D6D6805F473
:100F00007012234D6D6805F48034022505EB924282
:100F10001CB9214D554305600BE01D4D6D6805F46E
:100F200000351DB11C4D5543056002E0194D554378
:100F3000056002E0174D056000BF00BF144D6D68ED
:100F400005F0F0010909154D6B5C0568DD40456051
:100F50000F4D6D6805F4E061090A104D6B5C456842
:100F6000DD4085600A4D6D6805F46051C90A0B4D7E
:100F70006B5C4568DD40C560054D6D6805F440411A
:100F8000890B074D6B5CC568B5FBF3F5056130BD9A
:100F90000010024000127A0000093D009400002079
:100FA000A400002008B54FF48070ADF800000320C5
:100FB0008DF8020010208DF8030069460D48FFF7F8
:100FC00005FB4FF48050ADF8000003208DF80200BF
:100FD00010208DF8030069460748FFF7F7FA042050
:100FE000ADF800008DF8030069460248FFF7EEFAFD
:100FF00008BD000000080140000C014010B500F0E1
:10100000E3F900F0ABF810BD70B506464FF48071FF
:101010004748FFF76FFB642404E00A2001F060F901
:10102000601EC4B2002CF8D14FF480714048FFF725
:1010300063FBFA2404E00A2001F052F9601EC4B2F6
:10104000002CF8D100F050F9FA2404E0012001F05E
:1010500047F9601EC4B2002CF8D100F073F84220AA
:1010600000F038FA054600BF06E0324931F81400B6
:1010700000F04EFA601CC4B2032CF6DB2E4908883F
:1010800000F046FA40F60B3000F042FA40F62340FA
:1010900000F03EFA29488078062823D12849497A69
:1010A0004FF4E85202EB011101F1090000F030FAAF
:1010B000224989784FF4F05202EB0111C81C00F06C
:1010C00027FA312000F006FA054605F0F80545F04C
:1010D000050505F5445000F01BFA43F20C7000F0D2
:1010E00017FA12E01649497A4FF4E85202EB01115F
:1010F00001F1080000F00CFA104989784FF4F05221
:1011000002EB0111C81C00F003FA41F6FF7000F079
:10111000FFF94FF4005000F0FBF942F20C1000F020
:10112000F7F944F2011000F0F3F900F0E3F870BDB4
:10113000000801406A36000870360008783600085A
:101140007E36000810B54FF4C47000F0E1F910BD10
:1011500010B541F2FF2000F0DBF910BD10B5002002
:10116000FFF752FF44F6845000F0D2F942F2FF40FC
:1011700000F0CEF944F2010000F0CAF941F23F104C
:1011800000F0C6F9FFF7E4FF42F2152000F0C0F9C5
:101190000F2000F09FF9044604F5506000F0B8F904
:1011A00040F20D1000F0B4F910BD2DE9F0410446F5
:1011B00000270020FFF728FF4FF47A7001F090F825
:1011C00044F6875000F0A4F94FF4105000F0A0F955
:1011D00044F2410000F09CF9FFF7BAFF41F2F7102A
:1011E00000F096F904F5085000F092F90E2000F096
:1011F00071F9064606F5506000F08AF90BE02220EE
:1012000000F068F90546A54200D105E0032F02DB96
:101210000020BDE8F081F2E700BF2046F9E70000BA
:101220002DE9F0410546002603E00020A855701C7A
:10123000C6B2202EF9DB102000F04CF9074607F566
:10124000506000F065F9012001F04AF80C48807800
:10125000062801D1152403E0132000F03BF90446D1
:101260000848047022462946002000F0F1F8FFF7F4
:101270006FFF012001F034F82046BDE8F081000046
:10128000783600085D00002070B505460C46002643
:10129000224629460020FFF75BF940F20B1000F0D0
:1012A00037F909E0701C80B20646B0F57A7F00DDA0
:1012B00008E0012000F0F4FF04210A48FFF711FACA
:1012C0000028EFD000BF122000F004F9FFF740FF24
:1012D00000F010F8B6F57A7F01DD002070BD2046E1
:1012E000FCE700000008014010B54FF4847000F0E6
:1012F0000FF910BD10B540F2091000F009F910BD4A
:1013000010B5FFF72BFF10BD70B506460C46002543
:101310002046FFF74AFF054621463046FFF7B4FF57
:101320000546052000F0BCFFFFF7EAFF002D04DDB5
:1013300003480088401C02490880E8B270BD0000E4
:101340006400002000B587B0012141F20400FFF7DE
:101350009FFD01211A4800F057F9A020ADF80400C4
:1013600018208DF8070003208DF8060001A9154804
:10137000FFF72CF90020ADF808004FF48270ADF8AB
:101380000A000020ADF80C00ADF80E00ADF810001A
:101390004FF40070ADF812001820ADF814000020D2
:1013A000ADF816000720ADF8180002A9044800F0B7
:1013B0000DF90121024800F0C3F807B000BD00009C
:1013C000003001400008014000B587B01E4800F021
:1013D000C3F801210820FFF75BFD01218803FFF717
:1013E00037FD4FF46040ADF8040018208DF8070079
:1013F00003208DF8060001A91448FFF7E7F8002044
:10140000ADF808004FF48270ADF80A000020ADF886
:101410000C00ADF80E00ADF810004FF40070ADF800
:1014200012003820ADF814000020ADF81600072097
:10143000ADF8180002A9044800F0C8F801210248DC
:1014400000F07EF807B000BD00380040000C0140FD
:101450002DE9F04106460F461546012D01DCBDE899
:10146000F0814FF480510C48FFF744F906F07F00FB
:1014700000F014F8002405E0FF2000F00FF83855C4
:10148000601CC4B2AC42F7DB4FF480510248FFF756
:1014900033F900BFE3E70000000C014010B504463B
:1014A00000BF02210A4800F083F80028F9D0214645
:1014B000074800F089F800BF0121054800F078F8DE
:1014C0000028F9D0024800F07CF8C0B210BD00003E
:1014D0000038004070B504464FF480510848FFF7CB
:1014E00009F904F07F00FFF7D9FF00F00BF805467B
:1014F0004FF480510248FFF7FFF8284670BD000006
:10150000000C014010B5FF20FFF7C8FF10BD000020
:1015100010B5044644F400444FF480510748FFF7E7
:10152000E9F82012FFF7BAFFE0B2FFF7B7FF4FF478
:1015300080510248FFF7E0F810BD0000000C0140A8
:1015400021B1028842F04002028004E002884FF696
:10155000BF731A400280704710B504461148844298
:1015600008D101218014FFF7A3FC0021A014FFF78C
:101570009FFC16E00C48844208D101210014FFF7BB
:1015800077FC00212014FFF773FC0AE0074884422F
:1015900007D10121C013FFF76BFC0021E013FFF717
:1015A00067FC10BD0030014000380040003C0040A6
:1015B0000246002013890B400BB1012000E00020FF
:1015C00070470146888970478181704710B50022B5
:1015D000028802F441520B884C8823438C882343B1
:1015E000CC8823430C8923434C8923438C89234390
:1015F000CC8923431A430280838B4FF2FF7423402C
:1016000083830B8A038210BD21B1828842F00402D9
:10161000828004E082884FF6FB731A408280704714
:1016200010B500F001F810BD0CB50020019000903D
:101630003348006840F480303149086000BF3048CA
:10164000006800F4003000900198401C0190009860
:1016500018B90198B0F5A06FF1D12948006800F4DD
:10166000003010B10120009001E0002000900098AF
:10167000012843D12348006840F010002149086048
:101680000846006820F0030008600846006840F043
:10169000020008601A4840681949486008464068D6
:1016A00048600846406840F48060486008464068EA
:1016B00020F47C1048600846406840F4E810486018
:1016C0000846006840F08070086000BF0C48006861
:1016D00000F000700028F9D00948406820F00300AD
:1016E000074948600846406840F00200486000BF73
:1016F0000348406800F00C000828F9D10CBD000038
:10170000001002400020024070B5002016E00021C9
:1017100000EB40021E4B03EB8202516000EB4002E3
:1017200003EB8202916000EB400203EB82025170F6
:1017300000EB400203F82210411CC8B20428E6DB8B
:10174000144909684FF47A73B1FBF3F2511EB1F1F9
:10175000807F00D31BE0511E4FF0E02359615917E1
:101760000F23002904DB1C07250E0B4C655406E0F3
:101770001C07260E094C01F00F052D1F665500BFF2
:1017800000214FF0E02399610721196100BF70BD6E
:10179000DC000020A800002000E400E018ED00E0DC
:1017A00010B500F001F810BD10B51C48006840B13C
:1017B0001A480068401E1949086010B901201849EC
:1017C0000870002408E004EB4401164A02EB810093
:1017D00000F01CFE601CC4B2042CF4DB124800684C
:1017E000401C11490860084600686FF000418842BB
:1017F00002D100200C49086000F007FE0B48007879
:10180000401CC0B2094908700A2803DB0020087098
:1018100000F0FAFD064800F033F910BD6C0000201E
:1018200070000020DC000020740000207800002000
:101830001000002010B51348006840F00100114965
:10184000086008464068104908400E49486008464C
:1018500000680E4908400B4908600846006820F4FB
:10186000802008600846406820F4FE0048604FF47D
:101870001F008860FFF7D4FE4FF000600449086045
:1018800010BD0000001002400000FFF8FFFFF6FE50
:1018900008ED00E010B50221480700F05BF858B1F0
:1018A0000221480700F044F800220221480700F016
:1018B00062F81B48006880470421080700F04AF8D6
:1018C00058B10421080700F033F80022042108076A
:1018D00000F051F81348006880470821C80600F05E
:1018E00039F858B10821C80600F022F80022082172
:1018F000C80600F040F80C480068804710218806B0
:1019000000F028F858B11021880600F011F80022E4
:101910001021880600F02FF804480068804710BDA9
:101920007C0000208000002084000020880000202F
:10193000CA430282704721B1028842F0010202804C
:1019400004E002884FF6FE731A4002807047014699
:10195000888C704730B50246002000230024158A89
:1019600005EA0103958905EA010413B10CB10120D0
:1019700000E0002030BD1AB183890B43838102E06F
:1019800083898B43838170478186704701877047C5
:1019900081877047A0F8401070470000002202883D
:1019A0001D4B98420ED01D4B98420BD0B0F1804F8A
:1019B00008D01B4B984205D01A4B984202D01A4BC4
:1019C000984204D14FF68F731A404B881A43174B35
:1019D000984207D0164B984204D04FF6FF431A4066
:1019E000CB881A4302808B8883850B8803850A4B3A
:1019F00098420BD0094B984208D00E4B984205D024
:101A00000D4B984202D00D4B984201D10B7A0386C0
:101A10000123838270470000002C01400034014004
:101A20000004004000080040000C0040001000408E
:101A300000140040004001400044014000480140C3
:101A400070B50546002414E004EB440005EB80006B
:101A5000407801280BD104EB440105EB8101886833
:101A60008047002004EB440105EB81014870601CB5
:101A7000C4B2024800788442E6DB70BD5C000020FE
:101A80000146002033E000EB400211F8222062BB47
:101A900000EB400201EB82025288002A25DD00EBB8
:101AA000400201EB82025288521E00EB400301EB20
:101AB00083035A8000EB400201EB82025288A2B9F4
:101AC00000EB400211F822204AB900EB400201EB82
:101AD0008202928800EB400301EB83035A800122CB
:101AE00000EB400301EB83035A70421CD0B2024A60
:101AF00012789042C7DB70475C0000200420014947
:101B0000087070475C00002000B5FEF77DFF0149BA
:101B1000086000BD4C00002010B50648006880F445
:101B200080400449086004A202210020FEF7D4FF8F
:101B300010BD00000C1801404C4544315F544F4724
:101B4000474C450010B513480078012820D11248B1
:101B5000FFF766FBFFF7D4FB0F480078242814D169
:101B60000D484078232810D10B48807853280CD199
:101B70000948C078542808D101200849087000207D
:101B800007490876CD2106484183002001490870A5
:101B900010BD000000000020BC0000200400002058
:101BA0001000002010B515480078012825D11448F0
:101BB0000078012821D1262012490870032048709E
:101BC000FEF79CFD6421484340F62E2190FBF1F086
:101BD0000C4908712520487106210A48FFF794FB3B
:101BE00006220021074800F09BFC012006490876E8
:101BF0000020024908700249087010BD040000204E
:101C000005000020060000201000002008B5252057
:101C10008DF8000000208DF8020001208DF80300EF
:101C20006846FEF7D3FF26208DF8000001208DF8CE
:101C300002008DF803006846FEF7C8FF27208DF8E4
:101C4000000002208DF8020001208DF80300684694
:101C5000FEF7BCFF08BD10B500F0E0F800F004F896
:101C6000FFF7D4FF10BD000000B585B001210520AD
:101C7000FFF70EF901218803FFF70AF94FF400700E
:101C8000ADF8100018208DF8130003208DF8120015
:101C900004A95D48FEF79AFC4FF48060ADF810008F
:101CA00004208DF8130004A95748FEF78FFC4FF469
:101CB000E13000900020ADF80400ADF80600ADF86A
:101CC0000800ADF80C000C20ADF80A0069464F483A
:101CD00000F088F9012240F225514C4800F05DF9EE
:101CE00001214A4800F023F94021484800F016F944
:101CF00001210520FFF7CCF801214804FFF7A8F8DF
:101D00000420ADF8100018208DF8130003208DF882
:101D1000120004A93C48FEF759FC0820ADF8100059
:101D200004208DF8130004A93748FEF74FFC04A9DE
:101D30003548FEF74BFC4FF4E13000900020ADF841
:101D40000400ADF80600ADF80800ADF80C000C205A
:101D5000ADF80A0069462E4800F044F9012240F22D
:101D600025512B4800F019F90121294800F0DFF82E
:101D70004021274800F0D2F801210920FFF788F818
:101D800001218804FFF764F84FF48060ADF810007B
:101D900018208DF8130003208DF8120004A91D48A7
:101DA000FEF714FC4FF40060ADF8100004208DF82D
:101DB000130004A91748FEF709FC04A91548FEF70B
:101DC00005FC4FF4E13000900020ADF80400ADF8C0
:101DD0000600ADF80800ADF80C000C20ADF80A00C4
:101DE00069460D4800F0FEF8012240F225510A48EC
:101DF00000F0D3F80121084800F099F84021064886
:101E000000F08CF805B000BD00080140003801402A
:101E100000440040000C0140004800402248234993
:101E2000086023484860234888604FF480608881B8
:101E3000C881002008824882C8820883488388823B
:101E4000C86108621C4848621C481D4908601D485A
:101E500048601D4888604FF480608881C8810020F8
:101E600008824882C882088348838882C8610862E1
:101E700016484862164817490860174848601748CE
:101E800088604FF480608881C88100200882488281
:101E9000C8820883488388821148C8611148086253
:101EA0001148486270470000003801400C010020D2
:101EB00034010020340500201921000800440040AE
:101EC000340900205C0900205C0D00207921000805
:101ED000004800405C11002084110020841500207F
:101EE00093210008952100089121000810B50248AF
:101EF00000F051F910BD00000C01002010B502489F
:101F000000F049F910BD00003409002010B5024866
:101F100000F041F910BD00005C11002001F40072D6
:101F2000B2F5007F00D100BFCA430280704721B1E3
:101F3000828942F40052828104E082894DF6FF7367
:101F40001A408281704770B50246002400230025A4
:101F5000002040F66A16B14200D100BFC1F342151D
:101F600001F01F03012606FA03F3012D02D1968921
:101F7000334006E0022D02D1168A334001E0968AF2
:101F800033400C12012606FA04F41688344013B1CB
:101F90000CB1012000E0002070BDF0B50346002424
:101FA00000260025002040F66A17B94200D100BF84
:101FB0001846C1F3421401F01F06012707FA06F57F
:101FC000012C01D10C3004E0022C01D1103000E0D2
:101FD00014301AB107682F43076002E00768AF4367
:101FE0000760F0BD2DE9F04786B005460E46002497
:101FF000A24600BFA1460027B08900B100BF2F460E
:102000002C8A4CF6FF700440F08804432C82AC8983
:102010004EF6F3100440B0883189084371890843B3
:102020000443AC81AC8A4FF6FF400440B0890443BE
:10203000AC8201A8FEF74CFF1F48874202D1DDF8B1
:1020400010A001E0DDF80CA0A88900F4004040B128
:102050000AEBCA0000EB0A1031684900B0FBF1F846
:1020600007E00AEBCA0000EB0A1031688900B0FBF8
:10207000F1F86420B8FBF0F004012009642101FBB1
:102080001089A88900F4004040B1322000EBC9005B
:10209000B0FBF1F000F00700044308E0322000EB51
:1020A00009106421B0FBF1F000F00F0004432C8113
:1020B00006B0BDE8F087000000380140014688887E
:1020C000C0F308007047C1F3080282807047000027
:1020D00070B5044600200D49087040F22F150C4AD7
:1020E0002946012000F0A0F90A4890F896009628A9
:1020F0000ADA084890F8961090F89600401C054AB5
:1021000082F896001046445470BD00008F000020F5
:10211000252100088419002010B504462046FFF749
:10212000D7FF10BD01200149087070478F000020C3
:1021300070B5044600200D49087040F22F150C4A76
:102140002946022000F070F90A4890F89600962877
:102150000ADA084890F8961090F89600401C054A54
:1021600082F896001046445470BD00009000002094
:1021700085210008B41A002010B504462046FFF758
:10218000D7FF10BD01200149087070479000002062
:1021900070477047704770B5044640F2255120687B
:1021A000FFF7D1FEE0B12068FFF788FFC5B2E18AF2
:1021B000A0684554E08A401C80B2E082E1898842F0
:1021C00001DB0020E082608BE189884202DA608BCB
:1021D000401C6083606A10B12846616A884700BF6E
:1021E00040F227712068FFF7AEFE08B3A08A60B9FD
:1021F000002240F227712068FFF7CFFE012240F253
:1022000026612068FFF7C9FE37E0638A6268D15C07
:102210002068FFF758FF608A401C80B26082A18965
:10222000884201DB00206082A08A401EA08224E058
:1022300040F226612068FFF786FEF0B1A08A50B90F
:10224000002240F226612068FFF7A7FE206AA0B1B5
:10225000206A804711E0638A6268D15C2068FFF7DA
:1022600032FF608A401C80B26082A189884201DB13
:1022700000206082A08A401EA08270BD02E008C8D3
:10228000121F08C1002AFAD170477047002001E0F0
:1022900001C1121F002AFBD1704780F310887047DC
:1022A00010B5044604B910BD012C00D10224012050
:1022B000FFF7F3FF08480460002008490870FFF7A3
:1022C000ECFF04E005480078012800D100E0F9E7C0
:1022D00000BF00BFE7E700006C0000207000002096
:1022E000F0B5034600224FF0E02675690F4E3668C0
:1022F0000F4FB6FBF7F606FB03F400BF4FF0E026E6
:10230000B16910E04FF0E026B06988420BD08842F6
:1023100002D20E1A324402E02E1A0E443244014612
:10232000A24200D300E0EDE700BFF0BDA80000200E
:1023300040420F007FB501210846FEF789FD154890
:10234000006846081448B6FBF0F085B24FF6FF74FB
:10235000ADF80840ADF804500020ADF80A00ADF823
:10236000060001A94FF08040FFF718FB0121880704
:10237000FFF7E1FA1C208DF8000004208DF8010021
:1023800000208DF8020001208DF803006846FEF75A
:102390001DFC7FBDA800002040420F0010B5024880
:1023A000FFF74EFB10BD00001000002010B5FEF737
:1023B000D7FBFFF7A9F9FFF7BDFFFEF73FFCFEF7DC
:1023C000C1FF4FF4FA70FEF77BFBFEF799FCFEF7B6
:1023D0004BFC0020FEF767FC08A200210846FEF730
:1023E0007BFBFFF738FCFEF7DDFDFEF707FEFEF78F
:1023F00087FFFEF7F3F9FEF7DEFA10BD4F4C4544B8
:10240000205465737400000070477047416851B1F3
:102410004168491E416031B90121417001780129AB
:1024200001D18168416070472DE9F04104460F46B3
:102430001546052F00D37F1F4FF08040FFF787FA26
:10244000804608EB0706012C0FD125480560B1B284
:10245000A007FFF799FA02214807FFF769FA01225E
:1024600002214807FFF787FA38E0022C0FD11D48F8
:102470000560B1B26007FFF789FA04210807FFF78A
:1024800057FA012204210807FFF775FA26E0032C0A
:1024900010D115480560B1B24FF08040FFF778FACF
:1024A0000821C806FFF744FA01220821C806FFF7F1
:1024B00062FA13E0042C0FD10C480560B1B220077A
:1024C000FFF768FA10218806FFF732FA012210217F
:1024D0008806FFF750FA01E0BDE8F08100BFFBE796
:1024E0007C00002080000020840000208800002064
:1024F000FFF75CFF0A20FFF7D3FEFFF7FFFA09E0C2
:1025000004210548FEF7EDF810B1012003490870D9
:10251000FFF744FFF4E7000000080140000000203E
:1025200010B501E000F8011B131EA2F10102F9D160
:1025300010BD00E0A0A0A0A0F0A0A0A0A0E000001E
:102540000000000F040404041F1414141417100CCA
:1025500000000010101010101090D070301000000B
:102560000000010101011111111F01010101010010
:102570000000002020202020E0202020202020001B
:1025800000001010101010101F101010101010105C
:1025900000005050F04848007050505050507000AB
:1025A00000000C033F0102151515151F1515151117
:1025B000000000E00000F000D05050F05050D0106B
:1025C00000000027301807000F00003F08080F0028
:1025D00000004040F0404040F040404040F040406B
:1025E000000000001F101010171212121217101006
:1025F00000000000F050505050F0505050F00000DB
:1026000000000014150B07010101011F050504005E
:1026100000008090902080804040201020408080EA
:10262000000000101F1008001F12121211110C00E0
:1026300000004040F84040909090909090909080A2
:10264000000008080F04141814121110121C18109E
:10265000000000000000000000000000000000007A
:1026600000E0E000000000000000000000000000AA
:1026700000000000FFFFC3C3C3C3C3C3C3C3C3C3BE
:10268000C3FFFFC3C3C3C3C3C3C3C3C3C3FFFF00ED
:1026900000000000FFFF303030303030303030305C
:1026A00030FFFF303030303030303030303F3F009E
:1026B00000C000000000000000000000000000005A
:1026C00000070F18181818181818181818181818BC
:1026D0000E0F0000000080808080808080808080DD
:1026E00080808080808080808080808080808080EA
:1026F00000000000000001010101010101010101D0
:102700000101C1E161313119190D0D070703030101
:102710000000000303030303030303030303030392
:102720000303FFFF03030303030303030303030381
:10273000030300000000000000000018181818181B
:1027400018180F0F0000000000000000000000003B
:1027500000000000008080808080808080808080F9
:102760008080808080808080808080808080808069
:1027700080000000000101010101010101010101CE
:102780000101FFFF0101010101010101010101013D
:102790000100000000000000000000000000000038
:1027A0000000FFFF0000000000000000000000002B
:1027B0000000000C0C0C0C0C0C0C0C0C0C0C0C0C7D
:1027C0000C0C0F0F0C0C0C0C0C0C0C0C0C0C0C0C43
:1027D0000C0C0080808080808080C0C0C0C08000E1
:1027E0000080808080808080808080808080808069
:1027F00080006060616161E1FFFF606060606000B7
:10280000007F7F3131313131313131313131317FFF
:102810007F0080E070381E07FFFF02070E1C0803D0
:102820006363636363636363FFFF63636363636340
:1028300063630001000000001F1F000000000C0C7B
:102840000C0C0C0C0C0C0C0C0F0F0C0C0C0C0C0CC2
:102850000C0C0000000000000000C0C00000008060
:102860008080808080808080808080808080808068
:1028700080800000FFFF00000000FFFF000000015B
:10288000F1F13131313131FFFF313131313131F15C
:10289000F10100007F7F000000E0FF3F000000002A
:1028A000FFFF0000000000FFFF000000000000FF2D
:1028B000FF00000000081C0E0703010000000000DC
:1028C000030300000000001F1F00030303030303B2
:1028D00001000000000000808000000000000000F7
:1028E000C0C000000000000000000000C0C00000E8
:1028F00000000030303030FFFF30303030303030CA
:10290000FFFF30303030303030303030FFFF30308B
:1029100030300000000000FFFF0000000000000059
:102920007F7F303030303030303030307F7F0000CB
:10293000000000000000000F0F0C0C0C0C0C0C0C25
:102940000C0C0C0C0C0C0C0C0C0C0C0C0C0C0C0CC7
:102950000C0C00000000808080808080808080805F
:102960008080808080808080808080808080808067
:10297000000000000000FFFF999999999999999991
:102980009999FFFF99999999999999999999FFFF1F
:10299000000000206060333331111999F9FD0507FB
:1029A0000303010103030705FDF91919113133333D
:1029B000606000000008181C0C0E060703000000F1
:1029C00000000000000000001F1F000000000000C9
:1029D0000000000000000000000000808080808077
:1029E0008080808080000000000000000000000067
:1029F00000000000E0F8FC1E0E07030301010101C6
:102A0000010101010303070E1EFCF8E000000000B5
:102A100000000000071F3F7C70E0C0800000000045
:102A20000000000080C0E0707C3F1F070000000035
:102A3000000000000303030303030303030000007B
:102A4000000000030303030303030303000000006B
:102A50000000FFFFFFFFFFFFFFFFFFFFFFFFFFFF84
:102A6000FFFFFFFFFFFFFFFF7F7FBF9F1FFFFFFFF6
:102A7000CFCFAFF7F7FBFBFBF7FBF7FBFFF7F7F366
:102A8000E3F7F7E7E7E7EFDF8F3F3F7F7FFFFFFFEA
:102A90003F1F0F070301000000000080E0F8F8FF6F
:102AA000FFFFDFDBAFEFFFFFFFFFFFFFFFFFFFFFDA
:102AB000FFFFFFFFFFFFFFFFFFFFFFFFFF7FFFFFA6
:102AC000FFFFCFDFFFFFFFFFFFFFFFFFFFFFFFFF66
:102AD000FFFFFFFFFFFFFFFFFFFFFFFFFFFF3F3F86
:102AE0000F17032121FCFEFEFEFFFFFFFFFFFFFF8C
:102AF000FFFFFFFFFFFFFFFFFFFFFFFFFFFFFFFFE6
:102B0000FFFFFFFFFFFFFFFFFFFFFFFEFEEAC2F038
:102B1000F8E0E0F0F0F0E0E0F0F0FBEBF3E3F3F7E7
:102B2000F7D7C7E7E7E7E7E78F8F87C7C7C7C7E7E5
:102B3000E3F3FBFBFDFCFFFEFEFEFEFEFEFEFEFEE3
:102B4000FFFFFFFFFFFEFEFFFFFFFFFBFFF3EFDFD7
:102B5000CFFFFFFFFFFFFFFFFFFFFFFFFFFFFDFCBA
:102B6000FDF8F8F0B8FFFFFFFFFFFFFFFFFFFFFFDB
:102B7000FFFFFFFFBFFFF7F7FFFFFFFFFFFFFFFFB5
:102B8000FF7FFFFFFF7F0F0F573FBF1FF7BF8FFF75
:102B9000F73F7FFF6F0F4F137BFF9F9FFF3FBFFFED
:102BA000FFFFFFFF7FFFFFFFFFFFFFFFFFFFFFFFB5
:102BB000FFFFFFFFFFFFFFFFFFFFFFFFFFFFFFFF25
:102BC000FFFFFFFFFFFFFFFFFFFFFFFFFFFFFFFF15
:102BD000FFFFF7F7F7FFFFFFFFFFFFFFFFFFFFFB21
:102BE000FB99D9D9F9F1B001020F0F3F3F3F7F7F29
:102BF0003F3F3F1D1C3C1E3F3F3F3F7F7F1FCF7F1E
:102C0000F3C7C3D9F8F2F2FDDFBF7F0F07078F9F2D
:102C10009F9F9E9D2F7EF8FAFFFFFFFFFFFEFFFFA5
:102C2000FFFFFDFEEFFFFFFFFFFFFFFFFFFFFFFFC7
:102C3000FFFFFFFFFFFFFFFFFFFFFFFFFFFFFFFBA8
:102C4000EFF7F7FFFFFFFFFFFFFFFFFFFFFFFFFFB4
:102C5000BF7F0F0F9FFFFFFFFFFFFFFFFFFFFFFF84
:102C6000FFFFFFFFFFFFFFFFFEF0F0E0E0C0C080CE
:102C70008080000C0C0C05000000000030F8F4F41B
:102C8000FFFFFFFFFFF360C8F8FDFEF7FFF3FBF166
:102C9000F1F9FBFFFFFFFFFEFFFFFFFFFFFFFFEF6D
:102CA000FFFFFFFFFFFFFFFFFFFFFFFFFFFFFFFF34
:102CB000FFFFFFFFFFFFFFFFFFFFFFCF9F1F3F7FD4
:102CC000CFDF3F7FFFBFBFFFFFFFFFFFFFFFFCFF27
:102CD000FFFFF8FEFFFFFFFFFFFFFFFFFFFFFFFF0C
:102CE000FFFFFFFFFFFFFFFFFFFFFFFFFFFFFFFFF4
:102CF000FFFF3F1E1E1C1C1C00000060000F5FFF3A
:102D0000FFFFFFF1F1FCFFFFFFFFFFFFFFFFFFFFF2
:102D1000FFFFFFFFFFFFFFFFBF9FEFFFEFFFFFFF83
:102D2000FFFFFFFFFFFFFFFFFFFFFFFFFFFFFFFFB3
:102D3000FFFFFFFFFFFFFFFFFFFFFFFFFFFEFEFEA6
:102D4000FDF3FFDFFF7FFFFFFFFFFFFFFFFFFFFF41
:102D5000FFFFFFFFFFFFFFFFFFDFDFFFDFFFFFFFE3
:102D6000FFFFFFFFFFDFCFEFF7FFFFFFFFFFFFFFDB
:102D7000FFF2E0E0A08080C0000000000000000042
:102D80000103071F3F3F7F79F3F7FFFFFFFFFFFFBF
:102D9000FFFFFFFFFFFFFFFFFFFFFFFFFFFFFFFF43
:102DA000FFFFFFFFFFFFFFFFFFFFFFFFFFFFFFFF33
:102DB000FFFFFFFFFFFFFFFFFFFFFFFFFFFFFFFF23
:102DC000FFFFFFFFFFFEFEFDF7FFFFFFFFFFFFFF1F
:102DD0007FFF171F3F3F3F7F7F7F7F3F0F0F0F0F0B
:102DE000F7FFFFFFFFFFFFFFFFFFFFFFFFFFFFFFFB
:102DF000FFFFFFFFFFFFFFFFFFFEFEFCF0C0C00074
:102E000000C0C0F0F8FCFCFCFCFCFDFFFFFFFFFF76
:102E1000FFFFFFFFFFFFFFFFFFFFFFFFFFFFFFFFC2
:102E2000FFFFFFFFFFFFFFFFFFFFFFFFFFFFFFFFB2
:102E3000FFFFFFFFFFFFFFFFFFFFFFFFFFFFFFFFA2
:102E4000FFFFFFFFFFFFFFFFFFFFFFFFFFFFFFFF92
:102E5000FFFF0000000000000000002F0000000045
:102E60000700070000147F147F1400242A7F2A1211
:102E70000062640813230036495522500000050300
:102E8000000000001C224100000041221C00001430
:102E9000083E08140008083E0808000000A0600072
:102EA0000008080808080000606000000020100802
:102EB0000402003E5149453E0000427F400000426E
:102EC00061514946002141454B31001814127F10D1
:102ED000002745454539003C4A4949300001710900
:102EE000050300364949493600064949291E0000B4
:102EF000363600000000563600000008142241005B
:102F0000001414141414000041221408000201518A
:102F1000090600324959513E007C1211127C007F93
:102F200049494936003E41414122007F4141221C2E
:102F3000007F49494941007F09090901003E414993
:102F4000497A007F0808087F0000417F4100002087
:102F500040413F01007F08142241007F4040404033
:102F6000007F020C027F007F0408107F003E414179
:102F7000413E007F09090906003E4151215E007F64
:102F8000091929460046494949310001017F0101DB
:102F9000003F4040403F001F2040201F003F40387E
:102FA000403F0063140814630007087008070061BD
:102FB0005149454300007F41410000552A552A559B
:102FC000000041417F000004020102040040404033
:102FD0004040000001020400002054545478007F57
:102FE0004844443800384444442000384444487F2E
:102FF00000385454541800087E0901020018A4A493
:10300000A47C007F080404780000447D4000004058
:1030100080847D00007F102844000000417F400034
:10302000007C04180478007C0804047800384444C8
:10303000443800FC242424180018242418FC007CA4
:103040000804040800485454542000043F4440201D
:10305000003C4040207C001C2040201C003C4030B4
:10306000403C004428102844001CA0A0A07C004440
:1030700064544C4414141414141400000000000090
:1030800000000000000000000000000000F8000048
:103090000000000000333000000000100C06100C8F
:1030A0000600000000000000000040C07840C0782A
:1030B0004000043F04043F040400007088FC083012
:1030C0000000001820FF211E0000F008F000E018AA
:1030D000000000211C031E211E0000F00888700063
:1030E00000001E2123241927211010160E000000B5
:1030F00000000000000000000000000000E01804D4
:103100000200000000071820400000020418E00040
:1031100000000040201807000000404080F0804080
:1031200040000202010F01020200000000F0000056
:1031300000000101011F010101000000000000006A
:10314000000080B0700000000000000000000000DF
:103150000000000101010101010100000000000068
:10316000000000303000000000000000000080601F
:103170001804006018060100000000E010080810A4
:10318000E000000F102020100F00001010F80000C9
:1031900000000020203F2020000000700808088860
:1031A0007000003028242221300000300888884830
:1031B00030000018202020110E000000C02010F860
:1031C000000000070424243F240000F80888880831
:1031D00008000019212020110E0000E01088881836
:1031E0000000000F112020110E0000380808C83818
:1031F00008000000003F00000000007088080888F8
:103200007000001C222121221C0000E01008081080
:10321000E0000000312222110F00000000C0C000B9
:1032200000000000003030000000000000800000BE
:1032300000000000806000000000000080402010BE
:1032400008000001020408102000404040404040B7
:10325000400004040404040404000008102040801A
:10326000000000201008040201000070480808084F
:10327000F0000000003036010000C030C828E8101F
:10328000E0000718272423140B000000C038E000DA
:103290000000203C23020227382008F88888887024
:1032A0000000203F202020110E00C0300808080830
:1032B0003800071820202010080008F80808081017
:1032C000E000203F202020100F0008F88888E80840
:1032D0001000203F20202320180008F88888E808E4
:1032E0001000203F200003000000C030080808380C
:1032F000000007182020221E020008F8080000081D
:10330000F808203F210101213F20000808F80808A3
:1033100000000020203F2020000000000808F808DE
:103320000800C08080807F00000008F888C028184E
:103330000800203F20012638200008F8080000007F
:103340000000203F20202020300008F8F800F8F886
:103350000800203F003F003F200008F830C0000870
:10336000F808203F200007183F00E0100808081068
:10337000E0000F10202020100F0008F808080808AF
:10338000F000203F210101010000E01008080810B2
:10339000E0000F18242438504F0008F888888888E7
:1033A0007000203F2000030C3020007088080808BF
:1033B00038000038202121221C00180808F80808CD
:1033C00018000000203F2000000008F80800000856
:1033D000F808001F202020201F000878880000C85F
:1033E0003808000007380E010000F80800F800084F
:1033F000F800033C0700073C030008186880806859
:10340000180820302C03032C30200838C800C83896
:1034100008000000203F2000000010080808C838FD
:1034200008002038262120201800000000FE02029B
:1034300002000000007F40404000000C30C000004F
:103440000000000000010638C00000020202FE0079
:103450000000004040407F00000000000402020223
:103460000400000000000000000000000000000058
:103470000000808080808080808000020204000044
:10348000000000000000000000000000808080803C
:1034900000000019242222223F2008F8008080002A
:1034A0000000003F112020110E00000000808080ED
:1034B0000000000E112020201100000000808088F4
:1034C000F800000E112020103F2000008080808036
:1034D0000000001F222222221300008080F0888832
:1034E00088180020203F202000000000808080807D
:1034F0008000006B94949493600008F800808080B2
:103500000000203F210000203F200080989800000C
:1035100000000020203F202000000000008098983C
:10352000000000C08080807F000008F800008080DC
:103530008000203F24022D302000000808F8000001
:1035400000000020203F20200000808080808080BC
:103550008000203F20003F20003F8080008080804E
:103560000000203F210000203F200000808080805C
:103570000000001F202020201F008080008080008D
:10358000000080FFA12020110E000000008080803C
:103590008000000E112020A0FF80808080008080AD
:1035A000800020203F2120000100000080808080DA
:1035B00080000033242424241900008080E08080CF
:1035C00000000000001F202000008080000000801C
:1035D0008000001F202020103F208080800000807D
:1035E000808000010E30080601008080008000808D
:1035F00080800F300C030C300F0000808000808032
:1036000080000020312E0E3120008080800000805C
:10361000808080818E70180601000080808080800C
:1036200080000021302C2221300000000000807C2E
:10363000020200000000003F404000000000FF00C8
:10364000000000000000FF0000000002027C80007B
:1036500000000040403F000000000006010102029F
:10366000040400000000000000006C068007000851
:10367000FF09FC09F909F6090708090A0B0C000102
:10368000020304050607080931323334353637386A
:1036900039304142434445464748494A4B000000BF
:1036A0005358313237380000C83600080000002077
:1036B000BC0000007C22000884370008BC00002009
:1036C0002C1F00008C2200080000000000000000F9
:1036D000000000000000000000000A00E8030000F5
:1036E000191B00080000010002000000451B000833
:1036F0000100640000000000A51B0008000001009C
:103700000A000000091B0008000000000000000083
:1037100000000000000000000000000000000000A9
:103720000000000000000000A036000800000000BB
:103730000000000000000000000000000000000089
:103740000000000000000000000000000000000079
:103750000000000000000000000000000000000069
:103760000102030401020304060708090204060813
:1037700000A24A040000000000000000010203044F
:043780000607080927
:0400000508000131BD
:00000001FF
